:060000000A128A110E280D
:10000800FE00030EF8000408F9000A08FA000A12B4
:100018008A11442F0A128A111128FB018312031333
:10002800DB01DC01DD01DE01DF01E001E101E201CC
:10003800E30183010A128A113E2C8312031331084B
:100048008039B6003608BB003108B6003607B7005D
:100058003708C100B01F312832283328411441081D
:100068000319372838284728410A031D3C283D280A
:1000780045280030B1000030B0000030AF0000303B
:10008800AE00B0174F280030B1000030B00000308B
:10009800AF000030AE0035088039B6003608BB0620
:1000A8003508B6003607B7003708C000B41F5D280A
:1000B8005E285F28401440080319632864287328C1
:1000C800400A031D6828692871280030B5000030EF
:1000D800B4000030B3000030B200B4177B28003001
:1000E800B5000030B4000030B3000030B200400862
:1000F80003197F28802885284108031D842885281E
:100108008E280030B1000030B0000030AF00003061
:10011800AE00812B2E08B6003608A00034080A125B
:100128008A1188270A128A11831203132108C7002B
:100138002008C6004608B600B701B801B901390859
:10014800BF003808BE003708BD003608BC004708A5
:10015800B600B701B801B9013908C5003808C400AC
:100168003708C3003608C2002F08B6003608A000BA
:1001780033080A128A1188270A128A118312031374
:100188002108C7002008C6004608B600B701B80114
:10019800B9013608BC07370803110318013E0319D3
:1001A800D628BD07380803110318013E0319DD28B6
:1001B800BE07390803110318013E0319E428BF07D5
:1001C8004708B600B701B801B9013608C2073708B1
:1001D80003110318013E0319F228C3073808031155
:1001E8000318013E0319F928C40739080311031835
:1001F800013E03190029C5073008B6003608A000DB
:1002080032080A128A1188270A128A1183120313E4
:100218002108C7002008C6004608B600B701B80183
:10022800B9013608BC07370803110318013E031942
:100238001E29BD07380803110318013E0319252993
:10024800BE07390803110318013E03192C29BF07FB
:100258004708B600B701B801B9013608C207370820
:1002680003110318013E03193A29C307380803117B
:100278000318013E03194129C4073908031103185B
:10028800013E03194829C5070830B6000310BC0D04
:10029800BD0DBE0DBF0DB60B4A292F08B600360896
:1002A800A00032080A128A1188270A128A118312BA
:1002B80003132108C7002008C6004608B6004708EF
:1002C800B700B801B9013608BC073708031103188D
:1002D800013E03197029BD07380803110318013EB0
:1002E80003197729BE07390803110318013E0319BA
:1002F8007E29BF072E08B6003608A00033080A1268
:100308008A1188270A128A11831203132108C70049
:100318002008C6004608B6004708B700B801B9016A
:100328003608BC07370803110318013E03199D2935
:10033800BD07380803110318013E0319A429BE0795
:10034800390803110318013E0319AB29BF07083008
:10035800B6000310BC0DBD0DBE0DBF0DB60BAD290B
:100368002E08B6003608A00032080A128A1188271B
:100378000A128A11831203132108C7002008C60035
:100388004608B6004708B700B801B9013608BC07E7
:10039800370803110318013E0319D329BD0738088C
:1003A80003110318013E0319DA29BE07390803119E
:1003B8000318013E0319E129BF072F08B6003608C4
:1003C800A00034080A128A1188270A128A11831297
:1003D80003132108C7002008C6004608B6004708CE
:1003E800B700B801B9013608C20737080311031866
:1003F800013E0319002AC307380803110318013EF8
:100408000319072AC407390803110318013E031901
:100418000E2AC5073008B6003608A00033080A12AD
:100428008A1188270A128A11831203132108C70028
:100438002008C6004608B6004708B700B801B90149
:100448003608C207370803110318013E03192D2A7D
:10045800C307380803110318013E0319342AC407D7
:10046800390803110318013E03193B2AC507300850
:10047800B6003608A00034080A128A1188270A1222
:100488008A11831203132108C7002008C6004608F2
:10049800B6004708B700B801B90108300310B60D17
:1004A800B70DB80DB90DFF3E031D522A3608C20715
:1004B800370803110318013E0319632AC3073808D4
:1004C80003110318013E03196A2AC40739080311E6
:1004D8000318013E0319712AC5073C08B6003D08F8
:1004E800B7003E08B8003F08B90018300310B90C2F
:1004F800B80CB70CB60CFF3E031D7A2A3608C207A3
:10050800370803110318013E03198B2AC30738085B
:1005180003110318013E0319922AC407390803116D
:100528000318013E0319992AC5070830B6000310BD
:10053800BC0DBD0DBE0DBF0DB60B9B2A4108400773
:10054800B600B701B70D3608823EC6003708031853
:10055800013EFF3EC700CD2A0130B6000310C20D90
:10056800C30DC40DC50DB60BB22ABF1FBC2ABD2AC8
:10057800BE2A42140130B6000310BC0DBD0DBE0DDD
:10058800BF0DB60BC02AFF30C6070318C70AFF30D5
:10059800C707C41FD02AD12AB02AC001BF1FD52A35
:1005A800D62AF22AFF303C05B600FF303D05B700D9
:1005B800FF303E05B8007F303F05B90039083804E0
:1005C800370436040319E92AEA2AED2AC001C00AC9
:1005D800F22A421CF02AF12AF22AEA2A40080319D0
:1005E800F62AF72A282B0130C207003003180130F9
:1005F800C307003003180130C40700300318013066
:10060800C507451C082B092B282B4208B6004308B0
:10061800B7004408B8004508B9000130BA00390DE0
:10062800B90CB80CB70CB60CBA0B132B3908C500AB
:100638003808C4003708C3003608C2000130C607AE
:100648000318C70A0030C7074708803AFF00803000
:100658007F02031D312BFF304602031C342B352B40
:10066800402B7F3083120313C5008030C400003054
:10067800C3000030C200752B831203134708803A69
:10068800FF0080307F02031D4B2B01304602031808
:100698004E2B4F2B5B2B003083120313C500003009
:1006A800C4000030C3000030C200BB01752B8312A8
:1006B80003134608B6003608C100FF30C205FF30F4
:1006C800C3057F30C4050030C505411C6C2B6D2B5C
:1006D8006E2BC4174108B6000310360CB700370854
:1006E800C5003B08B6003608C5044508B1004408F3
:1006F800B0004308AF004208AE000800831203139D
:10070800A80028080319892B8A2B9E2BA31F8D2B41
:100718008E2B9E2B2009AA002109AB002209AC00D0
:100728002309AD00AA0A0319AB0A0319AC0A031975
:10073800AD0AA62B2308AD002208AC002108AB00A7
:100748002008AA002308220421042004031DAD2B3D
:10075800AE2BB72B0030A3000030A2000030A10060
:100768000030A0003D2C9630A4002408A900C92B15
:100778000130A4002408A90701300310AD0CAC0C0B
:10078800AB0CAA0CFF3E031DC12BFE302D05031D2B
:10079800CE2BCF2BBC2BEB2B0130A4002408A907B0
:1007A8000130AA07003003180130AB0700300318E6
:1007B8000130AC07003003180130AD0701300310D9
:1007C800AD0CAC0CAB0CAA0CFF3E031DE32BFF30A9
:1007D8002D05031DF02BF12BD02BFD2B0130A90289
:1007E8000130A4000310AA0DAB0DAC0DAD0DA40B88
:1007F800F62BAC1B002C012C072C02302902031805
:10080800062C072CF22B29180A2C0B2C132CFF3042
:10081800AA05FF30AB057F30AC05FF30AD050310EE
:10082800A90C2908A400A501A601A70118300310E6
:10083800A40DA50DA60DA70DFF3E031D1B2C240816
:10084800AA042508AB042608AC042708AD04280828
:1008580003192F2C302C352CA31F332C342C352C7A
:10086800AD172D08A3002C08A2002B08A1002A0808
:10087800A00008000A128A11FB260A128A118312A4
:1008880003135D08D300D401D501D6015608A3008F
:100898005508A2005408A1005308A00001300A120C
:1008A8008A1182230A128A11831203132308B500BE
:1008B8002208B4002108B3002008B2003C30B1007F
:1008C800A030B0009030AF002E30AE000A128A116E
:1008D80021200A128A11831203133108DA00300822
:1008E800D9002F08D8002E08D7005A08B500590893
:1008F800B4005808B3005708B2004230B100C830FD
:10090800B0000030AF000030AE000A128A1121207A
:100918000A128A11831203133108CB003008CA0067
:100928002F08C9002E08C8000A128A1167250A1262
:100938008A11831203134908DC004808DB005C08AD
:10094800B0005B08AF005E30D3005308B1000A1254
:100958008A11D9240A128A11831203139F18B52CFD
:10096800B62C432C1F0CD300530C0F39003A031D2F
:10097800BE2CBF2CC42C1F08C33904389F00CF2CB1
:100988001F0CD300530C0F39013A031DCC2CCD2C6E
:10099800CF2CC3309F05D02CD12C00008312031319
:1009A8009F14432C0A128A110E28643083120313F1
:1009B800A6000030A7003008A9002F08A8000A12D6
:1009C8008A11E3250A128A11831203133108023EA1
:1009D8008400260883138000840A270880000A30D0
:1009E800A6000030A7003108023E84000008A000DD
:1009F800840A0008A1009C30A200FF30A3000A125C
:100A08008A11B1270A128A11831203132F082007AB
:100A1800A80030080318300A2107A9000A128A1111
:100A2800E3250A128A11831203133108043E840055
:100A3800260883138000840A270880003108023EB4
:100A480084000008A000840A0008A1009C30A200CD
:100A5800FF30A3000A128A11B1270A128A118312E1
:100A680003132008B2002108B3003108043E8400B3
:100A780083130008A000840A0008A100F630A20031
:100A8800FF30A3000A128A11B1270A128A118312B1
:100A9800031320083207B40021080318210A33077A
:100AA800B5002F083407B60030080318300A350798
:100AB800B7003108063E8400360883138000840A94
:100AC8003708800008000310831203134A0D4B0DEA
:100AD800CC004C08D2005208031D732D742D7D2DB7
:100AE8000030CB000030CA000030C9000030C80018
:100AF800E22D4808CC004908CD004A08CE004B0832
:100B0800CF001F300310CF0CCE0CCD0CCC0CFF3E09
:100B1800031D862D4C08D0005008D100CA17FF309D
:100B2800C805FF30C905FF30CA050030CB0596302F
:100B3800D202D21FA02DA12DBB2D5208803A973E7C
:100B48000318A72DA82DA92D742D01300310CB0C47
:100B5800CA0CC90CC80CFF3E031DAA2D0130CC00DD
:100B68004C08D207031DB92DBA2DA92DD22D20303E
:100B78005202031CC02DC12DCD2D742D0130CC0087
:100B88000310C80DC90DCA0DCB0DCC0BC42D0130F7
:100B9800D2025208031DD12DD22DC22D510803199E
:100BA800D62DD72DE22DC809C909CA09CB09C80A0B
:100BB8000319C90A0319CA0A0319CB0A08008312C0
:100BC8000313AC01A71FE92DEA2DF12DA609A709EA
:100BD800A60A0319A70AAC01AC0AA91FF42DF52D22
:100BE800FE2DA809A909A80A0319A90A0130AA0013
:100BF8002A08AC06AD01AE01260827040319052E04
:100C0800062E3D2EAB01AB0A142E01300310A60DA3
:100C1800A70DFF3E031D0A2E0130AA002A08AB07C4
:100C2800A71F172E182E092E01300310AD0DAE0D7B
:100C3800FF3E031D192E27082902031D252E26080D
:100C48002802031C282E292E302E2608A802270841
:100C5800031CA903A9022D1401300310A70CA60C2C
:100C6800FF3E031D312E0130AB02031D3C2E3D2EED
:100C7800182E2C080319412E422E472EAD09AE0915
:100C8800AD0A0319AE0A2E08A7002D08A600080011
:100C9800F301802E3F30F2007208F300A52E0630D3
:100CA800F2007208F300A52E5B30F2007208F30020
:100CB800A52E4F30F2007208F300A52E6630F20020
:100CC8007208F300A52E6D30F2007208F300A52E0D
:100CD8007D30F2007208F300A52E0730F20072088A
:100CE800F300A52E7F30F2007208F300A52E6F30B6
:100CF800F2007208F300A52E7108003A0319852E38
:100D0800A52E7008003A03194E2E013A0319532EE6
:100D1800033A0319582E013A03195D2E073A0319AD
:100D2800622E013A0319672E033A03196C2E013A11
:100D38000319712E0F3A0319762E013A03197B2EE7
:100D4800A52E73080800F600831203138801870193
:100D5800E72E08157608023E840083130008F00089
:100D6800840A0008F1000A128A114C260A128A1114
:100D7800803E831203138700FA2E88147608043EF7
:100D8800840083130008F000840A0008F1000A12A6
:100D98008A114C260A128A11831203138700FA2E2D
:100DA80008147608063E840083130008F000840ABD
:100DB8000008F1000A128A114C260A128A118312BD
:100DC80003138700FA2E7B08F400F5017508003A32
:100DD8000319EF2EFA2E7408003A0319AD2E013AC2
:100DE8000319C12E033A0319D42EFA2E0800033032
:100DF80083160317880089010330831603138500BF
:100E08008601870188018312031385018601870102
:100E180088010C13831603130C170B178B178B16EB
:100E28000B11831203131F083F3940389F008316A4
:100E380003131F129F12C330831203139F051F0849
:100E4800C33904389F00831603139F1383120313B7
:100E58001F142E2F2F2F00008316031381128111C8
:100E68000108F83906388100FE3083120313810027
:100E7800831603130F088F3930388F000F140800BA
:100E8800831203130C1F492F4A2F652F1F0CF700DD
:100E9800770C0F39003A031D522F532F562F1E0877
:100EA8008600632F1F0CF700770C0F39013A031DDA
:100EB8005E2F5F2F632F1E08F7007708DD000C13E5
:100EC8007F2F0B1D682F692F7F2F5E300A128A1122
:100ED800A7260A128A110130F7007708FB070330AA
:100EE8007B02031C782F792F7A2FFB010B11FE3020
:100EF8008312031381007A088A0079088400780E27
:100F08008300FE0E7E0E090083120313A800A401BD
:100F1800A5012008A200A3012208A6002308A70013
:100F2800281C972F982F9E2F2608A4070318A50A78
:100F38002708A50701300310A60DA70DFF3E031DC6
:100F48009F2F0310A80C2808031DAB2FAC2F942F3C
:100F58002508A1002408A000080083120313A40197
:100F6800A501201CB82FB92FBF2F2208A4070318EA
:100F7800A50A2308A50701300310A20DA30DFF3E03
:100F8800031DC02F01300310A10CA00CFF3E031D50
:100F9800C72F20082104031DD22FD32FB52F2508D2
:080FA800A1002408A0000800CC
:08400000FF3FFF3FFF3FFF3FC0
:04400E00D420FF3F7C
:00000001FF
